:020000040000FA
:100000000C9463000C948B000C948B000C948B006C
:100010000C948B000C948B000C948B000C948B0034
:100020000C948B000C948B000C948B000C948B0024
:100030000C948B000C948B000C948B000C948B0014
:100040000C945B040C948B000C948B000C948B0030
:100050000C948B000C948B000C948B000C948B00F4
:100060000C948B000C948B000000000024002700EF
:100070002A000000000023002600290000000000E4
:10008000250028002B0004040404040404040202D4
:100090000202020203030303030301020408102007
:1000A0004080010204081020010204081020000012
:1000B0000008000201000003040700000000000027
:1000C0000000E908B00911241FBECFEFD8E0DEBF61
:1000D000CDBF11E0A0E0B1E0E2E9F8E102C0059097
:1000E0000D92A431B107D9F721E0A4E1B1E001C03C
:1000F0001D92AD37B207E1F710E0C2E6D0E004C0D0
:100100002197FE010E94110BC136D107C9F70E9449
:10011000A5040C943C0C0C940000CF92DF92EF925B
:10012000FF920F931F932091650130916601821712
:100130009307E8F58B0122273327C52ED62EE72E0D
:10014000FF244C2D50916B01552371F0E52FF0E009
:10015000E09FB001E19F700DF09F700D1124072FFB
:100160005C9D600111244D2DE091710120916C0185
:1001700030916D0150916E01E51320C0BC01660FF6
:10018000771F860F971F820F931FE0916E01E80F74
:10019000F92FF11D0083E0916F01E80FF92FF11D98
:1001A000408320917001820F911DFC0110821F91EC
:1001B0000F91FF90EF90DF90CF900895880F991FD7
:1001C000880F991F820F931FE80FF92FF11D1082DE
:1001D000DCCFCF93DF931F92CDB7DEB750917C0079
:1001E00040917A0030917B0028B197B180E48093F0
:1001F0007C0084E880937A0010927B004098389AC3
:100200003898419A80917A00806480937A0061E006
:1002100080917A0086FF04C088B1862788B9F8CF1C
:100220008091780060917900698350937C004093BD
:100230007A0030937B0028B997B9817090E00F90D5
:10024000DF91CF910895CF93DF930E94E900EC01F5
:100250000E94E900880F991F8C2B9D2B81309105FE
:1002600039F0029791F781E090E0DF91CF91089506
:1002700090E080E0FACFCF93DF930E942301EC015E
:100280000E942301880F991F8C2B9D2B8130910593
:1002900039F0029791F781E090E0DF91CF910895D6
:1002A00090E080E0FACF4F925F926F927F928F92B0
:1002B0009F92AF92BF92CF92DF92EF92FF92CF9335
:1002C000DF9300D000D0CDB7DEB7812C912C540144
:1002D000611571058105910509F478C069837A83F8
:1002E0008B839C83DC01CB010197A109B109898033
:1002F0009A80AB80BC8088229922AA22BB228114DA
:100300009104A104B10409F47CC06C017D01F59451
:10031000E794D794C7948C299D29AE29BF29AC01B5
:10032000BD0132E075956795579547953A95D1F798
:10033000842B952BA62BB72BAC01BD01E4E0759562
:10034000679557954795EA95D1F7842B952BA62B62
:10035000B72B492F5A2F6B2F772767FD7A95842B60
:10036000952BA62BB72BAD01772757FD7095672FDF
:10037000842B952BA62BB72B6C017D012FEFC21A76
:10038000D20AE20AF20AF594E794D794C7942601B8
:100390003701812C912C54010E943B01892B21F0C3
:1003A00084289528A628B72889819A81AB81BC81A9
:1003B00088169906AA06BB06F4F4759467945794B8
:1003C0004794411451046104710431F7C501B4012B
:1003D0000F900F900F900F90DF91CF91FF90EF90C3
:1003E000DF90CF90BF90AF909F908F907F906F9055
:1003F0005F904F90089526013701812C912C540174
:10040000E0CFC980DA80EB80FC80F594E794D79444
:10041000C794C114D104E104F104C1F20E943B016C
:10042000892B99F38C289D28AE28BF28EECF8330E6
:1004300081F028F4813099F08230A9F00895873056
:10044000A9F08830C9F08430B1F4809180008F7DAC
:1004500003C0809180008F7780938000089584B5D9
:100460008F7784BD089584B58F7DFBCF8091B000D8
:100470008F778093B00008958091B0008F7DF9CF81
:10048000CF93DF93282F30E0F901E255FF4F84919D
:10049000F901E656FF4FD491F901EA57FF4FC49195
:1004A000CC2391F081110E941702EC2FF0E0EE0FA7
:1004B000FF1FE458FF4FA591B4918FB7F894EC91CA
:1004C000D095DE23DC938FBFDF91CF910895CF933A
:1004D000DF9390E0FC01E656FF4F24918A579F4F2F
:1004E000FC0184918823C9F090E0880F991FFC01DA
:1004F000E859FF4FA591B491FC01E458FF4FC59115
:10050000D49161110DC09FB7F8948C9120958223EE
:100510008C938881282328839FBFDF91CF910895F2
:10052000623051F49FB7F8943C91822F80958323D9
:100530008C93E8812E2BEFCF8FB7F894EC912E2B74
:100540002C938FBFEACF3FB7F89480911901909117
:100550001A01A0911B01B0911C0126B5A89B05C0F2
:100560002F3F19F00196A11DB11D3FBFBA2FA92F32
:10057000982F8827BC01CD01620F711D811D911D2F
:1005800042E0660F771F881F991F4A95D1F708959B
:10059000CF92DF92EF92FF920F931F93CF93DF934F
:1005A000CDB7DEB729970FB6F894DEBF0FBECDBF2B
:1005B00080916C0190916D01892B09F480C0C090ED
:1005C0007201D0907301E0907401F09075010E9467
:1005D000A3026C157D058E059F0550F40E94A302B1
:1005E000609372017093730180937401909375010D
:1005F0000E94A30200917201109173012091740175
:1006000030917501601B710B820B930B6C32714042
:1006100081059105A0F2F89480916701909168019D
:100620009A838983E0916C01F0916D01DF0111964D
:100630008081898790916301E0917601F091770143
:1006400080917801992309F449C09081982B98876B
:100650009081809589238F838F818C8388E08B8321
:1006600058856F8149853B812C8189819A8150838E
:1006700047FD252F3A952083262F39F0441F00C0CF
:1006800000006083000000C0F2CF38E04D9160832D
:100690000000019761F7F0937701E09376014987B5
:1006A0003B832C839A83898378940E94A30260936E
:1006B0007201709373018093740190937501299670
:1006C0000FB6F894DEBF0FBECDBFDF91CF911F9163
:1006D0000F91FF90EF90DF90CF9008959081982B2D
:1006E00098879081809589238F838F818E8388E07E
:1006F0008D8358856F8149853D812E8189819A81BD
:10070000508347FD252F00C000C0208300C000C0DB
:1007100000C000C000C060830000262F3A9541F061
:10072000441F000000C000C000C000C000C0E8CFEF
:1007300038E04D9100C0608300C0019709F7F09345
:100740007701E093760149873D832E83ABCF8F926B
:100750009F92AF92BF92CF92DF92EF92FF924B01A6
:100760005C010E94A3026B017C010E94A3026C1930
:100770007D098E099F09683E734081059105A8F3A4
:1007800021E0821A9108A108B10888EEC80E83E022
:10079000D81EE11CF11C81149104A104B10429F7B5
:1007A000FF90EF90DF90CF90BF90AF909F908F9091
:1007B00008952FB7F89460911501709116018091FA
:1007C0001701909118012FBF08950F931F930E9456
:1007D000D90300912701109128012091290130911E
:1007E0002A01601771078207930758F0809104016E
:1007F00090910501919581959109909305018093C0
:1008000004011F910F910895CF93DF93D0E0C0E0D2
:1008100040E050E0BA01CE010E948D002196C8311F
:10082000D105B1F7DF91CF910C94C80280912B01D3
:1008300091E0892780932B018823E1F08FEF9FEFD0
:100840009093010180930001909303018093020132
:10085000909307018093060180E090E0A6E1B3E465
:1008600080930A0190930B01A0930C01B0930D01AA
:100870000C9404040E94040410922201109221019D
:1008800080E090E0A6E1B3E480930A0190930B012D
:10089000A0930C01B0930D010E94D9036053784FCF
:1008A0008F4F9F4F609327017093280180932901F8
:1008B00090932A0108951F920F920FB60F92112460
:1008C0002F933F938F939F93AF93BF938091150185
:1008D00090911601A0911701B09118013091140167
:1008E00023E0230F2D3758F50196A11DB11D20934C
:1008F00014018093150190931601A0931701B093F2
:1009000018018091190190911A01A0911B01B091D9
:100910001C010196A11DB11D8093190190931A012C
:10092000A0931B01B0931C01BF91AF919F918F9138
:100930003F912F910F900FBE0F901F90189526E8B2
:10094000230F0296A11DB11DD2CF789484B5826089
:1009500084BD84B5816084BD85B5826085BD85B563
:10096000816085BD80916E00816080936E001092E1
:10097000810080918100826080938100809181005C
:1009800081608093810080918000816080938000ED
:100990008091B10084608093B1008091B00081604B
:1009A0008093B00080917A00846080937A00809177
:1009B0007A00826080937A0080917A0081608093CF
:1009C0007A0080917A00806880937A001092C1004A
:1009D00060E083E00E94670285EE93E09093380127
:1009E0008093370186E194E090934801809347011A
:1009F0008091690190916A0197FD07C061E00E94B2
:100A00006702809169010E94400281E08093640145
:100A100060916B01653129F120916C0130916D017C
:100A20006150C9F070E08FEF94E10E94E90AF9018A
:100A30004091670150916801CF01821B930B84178D
:100A4000950760F44081469FC001479F900D112497
:100A500090833196EDCF70E060E0E9CF85E180933F
:100A60006B010E94D9036053784F8F4F9F4F609363
:100A70002701709328018093290190932A0168E14E
:100A8000A62EB12C22242A94322C20912C013091B4
:100A90002D0137FD6CC03327F901E255FF4F8491DA
:100AA000F901E656FF4FC491F901EA57FF4FD4917F
:100AB000DD2391F181110E941702ED2FF0E0EE0F7E
:100AC000FF1FEE58FF4FA591B491EC91CE2391E01A
:100AD00080E009F490E0C92FD82F009134011091E3
:100AE00035010E94D9032091590130915A012115F5
:100AF0003105A9F40C171D07D1F521E030E0309342
:100B00005A012093590160935B0170935C018093BB
:100B10005D0190935E012BC0D0E0C0E0DECF2130BC
:100B2000310509F0F4C0C0905B01D0905C01E09009
:100B30005D01F0905E019B01AC012C193D094E094D
:100B40005F0969017A010C171D0709F48FC0009134
:100B50002E0110912F0130E020E0C016D106E206F0
:100B6000F30608F074C010925A0110925901809156
:100B70002B01811164C0809100019091010197FFC8
:100B80000CC0C0910601D0910701D7FFA3C18CE032
:100B900090E0909301018093000180910201909177
:100BA000030197FF24C068E170E080E090E00E94BC
:100BB00053017093030160930201809102019091AF
:100BC00003012091060130910701AC01421B530B38
:100BD0009A012A5F3F4F2D30310528F32091000103
:100BE00030910101821B930B06960D97E0F2C091A4
:100BF0000001D091010140E050E06FEF70E0CE01C4
:100C00000E948D00C0900201D090030140E05FEF90
:100C10006FEF70E0C6010E948D000E94D903009121
:100C20002701109128012091290130912A01601794
:100C300071078207930708F061C10E94C80220E093
:100C400030E0232B09F421CF0E9400001ECF42E0A8
:100C500050E050935A014093590160935F017093A3
:100C60006001809361019093620181CF0091320114
:100C70001091330130E020E00C151D052E053F05D5
:100C8000E8F560935F017093600180936101909338
:100C9000620151E050933601E0914301F09144012B
:100CA000309709F00995E0914701F091480130979C
:100CB00009F00995E0914901F0914A01309729F036
:100CC00080914B0190914C010995E0915301F09175
:100CD0005401309709F00995E0915501F0915601C2
:100CE000309729F08091570190915801099586E03D
:100CF00090E090935A018093590139CFE0914501DA
:100D0000F0914601309709F432CF099530CF223067
:100D1000310509F060C020913D0130913E01232B47
:100D200031F420913F0130914001232BD9F0C09044
:100D30005B01D0905C01E0905D01F0905E019B0151
:100D4000AC012C193D094E095F0969017A014090F7
:100D5000300150903101712C612C4C145D046E04F3
:100D60007F04A0F4E0913701F0913801309709F049
:100D70000995E0913901F0913A0180913B01909100
:100D80003C01309709F4EFCE0995EDCE0C171D0705
:100D900009F0EDCE00915F01109160012091610199
:100DA000309162016B017C01C01AD10AE20AF30A98
:100DB00000912E0110912F0130E020E00C151D054F
:100DC0002E053F0508F0D3CE43E050E050935A0182
:100DD0004093590198CE23303105C9F50C171D07F2
:100DE00009F4C5CE00915B0110915C0120915D0179
:100DF00030915E016B017C01C01AD10AE20AF30A4C
:100E000000912E0110912F0130E020E00C151D05FE
:100E10002E053F0508F0ABCE60935F017093600133
:100E20008093610190936201E0913D01F0913E0158
:100E3000309709F00995E0913F01F091400130971A
:100E400009F491CE80914101909142019DCF2630CD
:100E5000310509F08CCE0C171D07E9F01092360110
:100E600060935F01709360018093610190936201D0
:100E7000E0914D01F0914E01309709F00995E09114
:100E80004F01F091500180915101909152013097A2
:100E900009F07ACF68CE60935F0170936001809310
:100EA00061019093620151E050933601E09153014A
:100EB000F0915401309709F00995E0915501F091B6
:100EC0005601309709F453CE809157019091580103
:100ED00009954DCE68E170E080E090E00E945301FA
:100EE00070930101609300018091000190910101D4
:100EF0008C1B9D0B05960B9768F34FCE0E94D90370
:100F00000E94320A20912301309124014091250151
:100F1000509126010E94E40A18160CF08ECE0E9411
:100F2000D90340900A0150900B0160900C01709021
:100F30000D010E94320AA30192010E94C10960932F
:100F400023017093240180932501909326018091C1
:100F500008019091090197FD05C040E050E0BA01F9
:100F60000E948D00009106011091070117FD0BC032
:100F700040E054E660E070E0C8010E948D001093EC
:100F80000901009308018091040190910501080F67
:100F9000191F17FF5BC087E190E0909307018093D2
:100FA0000601E0900601F0900701870140E05FEF45
:100FB00060E070E0C7010E948D00CE14DF0409F0EC
:100FC00059C0309201012092000130920301209219
:100FD00002018091210190912201019690932201BA
:100FE0008093210120E030E040E251E4C301B201EE
:100FF0000E94C0092B013C0120E030E048E452E4AB
:101000000E942D0A87FD2FC020E030E046E153E426
:10101000C301B2010E94E40A181634F4412C512C89
:1010200046E1642E43E4742E40920A0150920B0173
:1010300060920C0170920D010E94040440E05FEF89
:1010400060E070E0C7010E948D00F7CD0831110506
:1010500029F01093070100930601A3CF1092070116
:10106000109206019ECF412C512C38E4632E32E4BD
:10107000732EDACFCE15DF0509F0DFCDE090210128
:10108000F0902201F0922001E0921F0180911D0159
:1010900090911E01E816F90624F0F0921E01E092EC
:1010A0001D016E012CE0822E912C40E050E06FEF8C
:1010B00070E0C8010E948D0040E050E06FEF70E0EA
:1010C000C6010E948D00C8010196B5010E94FD0A6B
:1010D0008C0191E0C91AD10818F498E1C92ED12CDD
:1010E0000E94C80264E170E080E090E00E94A703E3
:1010F00031E0831A9108C9F664E670E080E090E080
:101100000E94A7038E018CE0C82ED12C40E050E055
:10111000BA01CE010E948D0040E050E0BA01C80142
:101120000E948D00CE010196B5010E94FD0AEC01DE
:101130000150110910F408E110E00E94C80264E1B6
:1011400070E080E090E00E94A70351E0C51AD1084A
:10115000E9F664E670E080E090E00E94A703D0E04A
:10116000C0E000911D0110911E0140E05BE96FEFAE
:1011700070E0C017D1071CF040E050E0BA01CE018A
:101180000E948D002196C831D10559F7E016F1066D
:1011900074F4D0E0C0E0CE15DF054CF440E050E040
:1011A0006FEF70E0CE010E948D002196F4CF0E9477
:1011B000C80281E080932B0130920101209200014E
:1011C0003092030120920201309207012092060121
:1011D00034CD82E390E090932F0180932E0188E537
:1011E00092E0909331018093300188EE93E09093E8
:1011F000330180933201109236011092380110921F
:10120000370110923A011092390110923C0110926C
:101210003B0110923E0110923D011092400110924C
:101220003F0110924201109241011092440110922C
:10123000430110924601109245011092480110920C
:10124000470110924A011092490110924C011092EC
:101250004B0110924E0110924D01109250011092CC
:101260004F011092540110925301109256011092A6
:101270005501109258011092570110925A01109284
:10128000590183E090E090932D0180932C0181E03F
:1012900090E0909335018093340162E083E00E94F6
:1012A00067021092640110926B0110927201109209
:1012B0007301109274011092750181E080937101A5
:1012C00080936E0110926F0192E090937001809371
:1012D000630188E490E090936801809367010E9425
:1012E000170B90936D0180936C01009781F128E4B6
:1012F000FC0111922A95E9F788E190E0909366014C
:101300008093650184E090E090936A018093690185
:1013100080916401882339F061E084E00E946702D3
:1013200084E00E944002EAE8F0E0E491F0E0EE0F91
:10133000FF1FE458FF4F859194919093770180931C
:101340007601EEE9F0E0E491E093780108951092DF
:101350006801109267011092660110926501D2CF68
:1013600080916C0190916D010E94B30B8091690195
:1013700090916A0197FD03C060E00C9467020895A4
:101380005058BB27AA270E94D8090C94AA0A0E9489
:101390009C0A38F00E94A30A20F039F49F3F19F408
:1013A00026F40C94990A0EF4E095E7FB0C94930A4A
:1013B000E92F0E94BB0A58F3BA1762077307840724
:1013C000950720F079F4A6F50C94DD0A0EF4E0956B
:1013D0000B2EBA2FA02D0B01B90190010C01CA01EF
:1013E000A0011124FF27591B99F0593F50F4503E9A
:1013F00068F11A16F040A22F232F342F4427585F8C
:10140000F3CF469537952795A795F0405395C9F7A3
:101410007EF41F16BA0B620B730B840BBAF091505B
:10142000A1F0FF0FBB1F661F771F881FC2F70EC0FA
:10143000BA0F621F731F841F48F4879577956795CD
:10144000B795F7959E3F08F0B0CF9395880F08F0B9
:101450009927EE0F9795879508950E946F0A08F4D3
:1014600081E00895E89409C097FB3EF4909580953B
:10147000709561957F4F8F4F9F4F9923A9F0F92F5A
:1014800096E9BB279395F695879577956795B795D8
:10149000F111F8CFFAF4BB0F11F460FF1BC06F5FBE
:1014A0007F4F8F4F9F4F16C0882311F096E911C0D0
:1014B000772321F09EE8872F762F05C0662371F0F1
:1014C00096E8862F70E060E02AF09A95660F771F05
:1014D000881FDAF7880F9695879597F90895990FE1
:1014E0000008550FAA0BE0E8FEEF16161706E807EE
:1014F000F907C0F012161306E407F50798F0621B0F
:10150000730B840B950B39F40A2661F0232B242BE3
:10151000252B21F408950A2609F4A140A6958FEF02
:10152000811D811D089597F99F6780E870E060E054
:1015300008959FEF80EC089500240A94161617066C
:1015400018060906089500240A94121613061406B4
:1015500005060895092E0394000C11F4882352F017
:10156000BB0F40F4BF2B11F460FF04C06F5F7F4FCF
:101570008F4F9F4F089557FD9058440F551F59F0B6
:101580005F3F71F04795880F97FB991F61F09F3F70
:1015900079F087950895121613061406551FF2CF99
:1015A0004695F1DF08C0161617061806991FF1CFE9
:1015B00086957105610508940895E894BB27662710
:1015C0007727CB0197F908950E946F0A08F48FEFEF
:1015D0000895AA1BBB1B51E107C0AA1FBB1FA6177A
:1015E000B70710F0A61BB70B881F991F5A95A9F7CC
:1015F00080959095BC01CD01089597FB072E16F4B8
:10160000009407D077FD09D00E94E90A07FC05D0B5
:101610003EF4909581959F4F0895709561957F4F09
:101620000895EE0FFF1F0590F491E02D09940F939C
:101630001F93CF93DF938230910510F482E090E006
:10164000E0917B01F0917C0130E020E0B0E0A0E08F
:10165000309799F42115310509F44AC0281B390B3C
:1016600024303105D8F58A819B816115710589F196
:10167000FB0193838283FE0111C04081518102816D
:10168000138148175907E0F04817590799F4109744
:1016900061F012960C93129713961C933296CF0119
:1016A000DF91CF911F910F91089500937B011093CB
:1016B0007C01F4CF2115310551F04217530738F062
:1016C000A901DB019A01BD01DF01F801C1CFEF01E2
:1016D000F9CF90937C0180937B01CDCFFE01E20F87
:1016E000F31F819391932250310939832883D7CFF7
:1016F0002091790130917A01232B41F4209110013E
:101700003091110130937A012093790120910E01DB
:1017100030910F012115310541F42DB73EB74091AD
:10172000120150911301241B350BE0917901F091C6
:101730007A01E217F307A0F42E1B3F0B2817390795
:1017400078F0AC014E5F5F4F2417350748F04E0F1D
:101750005F1F50937A0140937901819391939FCFBA
:10176000F0E0E0E09CCFCF93DF930097E9F0FC013D
:10177000329713821282A0917B01B0917C01ED011E
:1017800030E020E01097A1F420813181820F931F77
:101790002091790130917A012817390709F061C049
:1017A000F0937A01E0937901DF91CF910895EA01F6
:1017B000CE17DF07E8F54A815B819E01411551058F
:1017C000B1F7E901FB83EA8349915991C40FD51F11
:1017D000EC17FD0761F4808191810296840F951FBB
:1017E000E90199838883828193819B838A83F0E0D6
:1017F000E0E012968D919C9113970097B9F52D9189
:101800003C911197CD010296820F931F209179018F
:1018100030917A012817390739F6309751F510922F
:101820007C0110927B01B0937A01A0937901BCCF27
:10183000D383C28340815181840F951FC817D90774
:1018400061F44E5F5F4F88819981480F591F518322
:1018500040838A819B81938382832115310509F01E
:10186000B0CFF0937C01E0937B019ECFFD01DC01C2
:10187000C0CF13821282D7CF10E0C2E6D0E004C0FE
:10188000FE010E94110B2196C336D107C9F7F894C7
:10189000FFCFFFFFFFFF0100FFFFFFFF0000164328
:0618A00000007D01800044
:107E0000112484B714BE81FFF0D085E080938100F7
:107E100082E08093C00088E18093C10086E0809377
:107E2000C20080E18093C4008EE0C9D0259A86E02C
:107E300020E33CEF91E0309385002093840096BBD3
:107E4000B09BFECF1D9AA8958150A9F7CC24DD24C4
:107E500088248394B5E0AB2EA1E19A2EF3E0BF2EE7
:107E6000A2D0813461F49FD0082FAFD0023811F036
:107E7000013811F484E001C083E08DD089C08234E0
:107E800011F484E103C0853419F485E0A6D080C0E4
:107E9000853579F488D0E82EFF2485D0082F10E0AE
:107EA000102F00270E291F29000F111F8ED06801E7
:107EB0006FC0863521F484E090D080E0DECF843638
:107EC00009F040C070D06FD0082F6DD080E0C81688
:107ED00080E7D80618F4F601B7BEE895C0E0D1E017
:107EE00062D089930C17E1F7F0E0CF16F0E7DF06D8
:107EF00018F0F601B7BEE89568D007B600FCFDCFD4
:107F0000A601A0E0B1E02C9130E011968C91119780
:107F100090E0982F8827822B932B1296FA010C0160
:107F200087BEE89511244E5F5F4FF1E0A038BF0790
:107F300051F7F601A7BEE89507B600FCFDCF97BE46
:107F4000E89526C08437B1F42ED02DD0F82E2BD052
:107F50003CD0F601EF2C8F010F5F1F4F84911BD097
:107F6000EA94F801C1F70894C11CD11CFA94CF0C13
:107F7000D11C0EC0853739F428D08EE10CD085E9AC
:107F80000AD08FE07ACF813511F488E018D01DD067
:107F900080E101D065CF982F8091C00085FFFCCF94
:107FA0009093C60008958091C00087FFFCCF809118
:107FB000C00084FD01C0A8958091C6000895E0E648
:107FC000F0E098E1908380830895EDDF803219F02E
:107FD00088E0F5DFFFCF84E1DECF1F93182FE3DFCA
:107FE0001150E9F7F2DF1F91089580E0E8DFEE27F6
:047FF000FF270994CA
:027FFE00040479
:00000001FF
